{
  "contractName": "Buy",
  "abi": [
    {
      "constant": true,
      "inputs": [
        {
          "name": "",
          "type": "uint256"
        }
      ],
      "name": "customers",
      "outputs": [
        {
          "name": "",
          "type": "address"
        }
      ],
      "payable": false,
      "stateMutability": "view",
      "type": "function"
    },
    {
      "constant": false,
      "inputs": [
        {
          "name": "planetId",
          "type": "uint256"
        }
      ],
      "name": "buy",
      "outputs": [
        {
          "name": "",
          "type": "uint256"
        }
      ],
      "payable": false,
      "stateMutability": "nonpayable",
      "type": "function"
    },
    {
      "constant": false,
      "inputs": [
        {
          "name": "planetId",
          "type": "uint256"
        }
      ],
      "name": "sale",
      "outputs": [
        {
          "name": "",
          "type": "uint256"
        }
      ],
      "payable": false,
      "stateMutability": "nonpayable",
      "type": "function"
    },
    {
      "constant": true,
      "inputs": [],
      "name": "getCustomers",
      "outputs": [
        {
          "name": "",
          "type": "address[7]"
        }
      ],
      "payable": false,
      "stateMutability": "view",
      "type": "function"
    }
  ],
  "bytecode": "0x608060405234801561001057600080fd5b50610450806100206000396000f300608060405260043610610062576000357c0100000000000000000000000000000000000000000000000000000000900463ffffffff1680639603270214610067578063c0abda2a146100a8578063d96a094a14610115578063f1ba712714610156575b600080fd5b34801561007357600080fd5b50610092600480360381019080803590602001909291905050506101a9565b6040518082815260200191505060405180910390f35b3480156100b457600080fd5b506100d360048036038101908080359060200190929190505050610285565b604051808273ffffffffffffffffffffffffffffffffffffffff1673ffffffffffffffffffffffffffffffffffffffff16815260200191505060405180910390f35b34801561012157600080fd5b50610140600480360381019080803590602001909291905050506102ba565b6040518082815260200191505060405180910390f35b34801561016257600080fd5b5061016b610380565b6040518082600760200280838360005b8381101561019657808201518184015260208101905061017b565b5050505090500191505060405180910390f35b60008082101580156101bc575060078211155b801561022357506000826007811015156101d257fe5b0160009054906101000a900473ffffffffffffffffffffffffffffffffffffffff1673ffffffffffffffffffffffffffffffffffffffff163373ffffffffffffffffffffffffffffffffffffffff16145b151561022e57600080fd5b6000808360078110151561023e57fe5b0160006101000a81548173ffffffffffffffffffffffffffffffffffffffff021916908373ffffffffffffffffffffffffffffffffffffffff160217905550819050919050565b60008160078110151561029457fe5b016000915054906101000a900473ffffffffffffffffffffffffffffffffffffffff1681565b60008082101580156102cd575060078211155b801561031e5750600080836007811015156102e457fe5b0160009054906101000a900473ffffffffffffffffffffffffffffffffffffffff1673ffffffffffffffffffffffffffffffffffffffff16145b151561032957600080fd5b3360008360078110151561033957fe5b0160006101000a81548173ffffffffffffffffffffffffffffffffffffffff021916908373ffffffffffffffffffffffffffffffffffffffff160217905550819050919050565b610388610401565b60006007806020026040519081016040528092919082600780156103f7576020028201915b8160009054906101000a900473ffffffffffffffffffffffffffffffffffffffff1673ffffffffffffffffffffffffffffffffffffffff16815260200190600101908083116103ad575b5050505050905090565b60e0604051908101604052806007906020820280388339808201915050905050905600a165627a7a723058202570261bcbdee8fd72772813e5569401454c4c06d1b59e9bc20d6eadfb9759490029",
  "source": "pragma solidity ^0.4.23;\n\ncontract Buy {\n  address[7] public customers;\n\n  // buying a planet\n  function buy(uint planetId) public returns (uint) {\n    require(planetId >= 0 && planetId <= 7 && customers[planetId] == 0x0);\n    customers[planetId] = msg.sender;\n    return planetId;\n  }\n\n  function sale(uint planetId) public returns (uint) {\n    require(planetId >= 0 && planetId <= 7 && msg.sender == customers[planetId]);\n    customers[planetId] = 0x0;\n    return planetId;\n  }\n\n  // Retrieving the customers\n  function getCustomers() public view returns (address[7]) {\n    return customers;\n  }\n}\n",
  "sourcePath": "/Users/shaman/dev/interview/spro/planet-shop/contracts/Buy.sol",
  "compiler": {
    "name": "solc",
    "version": "0.4.24+commit.e67f0147.Emscripten.clang"
  },
  "schemaVersion": "2.0.1",
  "updatedAt": "2018-07-15T16:47:14.344Z"
}